{
  "_format": "hh-sol-artifact-1",
  "contractName": "MockUniV3SpotPrice",
  "sourceName": "contracts/MockUniV3SpotPirce.sol",
  "abi": [
    {
      "inputs": [
        {
          "internalType": "address",
          "name": "_tokenPrice",
          "type": "address"
        }
      ],
      "stateMutability": "nonpayable",
      "type": "constructor"
    },
    {
      "inputs": [],
      "name": "checkIfCorrectPoolAddress",
      "outputs": [
        {
          "internalType": "bool",
          "name": "value",
          "type": "bool"
        }
      ],
      "stateMutability": "pure",
      "type": "function"
    },
    {
      "inputs": [],
      "name": "get1EthPriceInTermsOfDai",
      "outputs": [
        {
          "internalType": "uint256",
          "name": "",
          "type": "uint256"
        }
      ],
      "stateMutability": "view",
      "type": "function"
    }
  ],
  "bytecode": "0x60a060405234801561001057600080fd5b506040516106d43803806106d48339818101604052602081101561003357600080fd5b81019080805190602001909291905050508073ffffffffffffffffffffffffffffffffffffffff1660808173ffffffffffffffffffffffffffffffffffffffff1660601b815250505060805160601c61063c61009860003980607d525061063c6000f3fe608060405234801561001057600080fd5b50600436106100365760003560e01c806326a55c7b1461003b578063be1a1f1d14610059575b600080fd5b610043610079565b6040518082815260200191505060405180910390f35b6100616101d9565b60405180821515815260200191505060405180910390f35b60007f000000000000000000000000000000000000000000000000000000000000000073ffffffffffffffffffffffffffffffffffffffff16639874a99c730f04024bda15f6e5d48ed92938654a6449f483ed6001670de0b6b3a764000073c7ad46e0b8a400bb3c915120d284aafba8fc473573c778417e063141139fce010982780140aa0cd5ab6040518663ffffffff1660e01b8152600401808673ffffffffffffffffffffffffffffffffffffffff1681526020018563ffffffff1681526020018481526020018373ffffffffffffffffffffffffffffffffffffffff1681526020018273ffffffffffffffffffffffffffffffffffffffff1681526020019550505050505060206040518083038186803b15801561019957600080fd5b505afa1580156101ad573d6000803e3d6000fd5b505050506040513d60208110156101c357600080fd5b8101908080519060200190929190505050905090565b60008061021173c778417e063141139fce010982780140aa0cd5ab73c7ad46e0b8a400bb3c915120d284aafba8fc4735610bb86103b7565b90506000610233731f98431c8ad98523631ae4a59f267346ea31f98483610453565b90506000610255731f98431c8ad98523631ae4a59f267346ea31f98484610453565b90508073ffffffffffffffffffffffffffffffffffffffff168273ffffffffffffffffffffffffffffffffffffffff16146102f8576040517f08c379a00000000000000000000000000000000000000000000000000000000081526004018080602001828103825260158152602001807f53686f756c64206e65766572206d69736d61746368000000000000000000000081525060200191505060405180910390fd5b730f04024bda15f6e5d48ed92938654a6449f483ed73ffffffffffffffffffffffffffffffffffffffff168273ffffffffffffffffffffffffffffffffffffffff16146103ad576040517f08c379a00000000000000000000000000000000000000000000000000000000081526004018080602001828103825260158152602001807f53686f756c64206e65766572206d69736d61746368000000000000000000000081525060200191505060405180910390fd5b6001935050505090565b6103bf6105b4565b8273ffffffffffffffffffffffffffffffffffffffff168473ffffffffffffffffffffffffffffffffffffffff1611156103fe57828480945081955050505b60405180606001604052808573ffffffffffffffffffffffffffffffffffffffff1681526020018473ffffffffffffffffffffffffffffffffffffffff1681526020018362ffffff1681525090509392505050565b6000816020015173ffffffffffffffffffffffffffffffffffffffff16826000015173ffffffffffffffffffffffffffffffffffffffff161061049557600080fd5b60ff60f81b83836000015184602001518560400151604051602001808473ffffffffffffffffffffffffffffffffffffffff1681526020018373ffffffffffffffffffffffffffffffffffffffff1681526020018262ffffff1681526020019350505050604051602081830303815290604052805190602001207fe34f199b19b2b4f47f68442619d555527d244f78a3297ea89325f843f87b8b5460001b60405160200180857effffffffffffffffffffffffffffffffffffffffffffffffffffffffffffff191681526001018473ffffffffffffffffffffffffffffffffffffffff1660601b81526014018381526020018281526020019450505050506040516020818303038152906040528051906020012060001c905092915050565b6040518060600160405280600073ffffffffffffffffffffffffffffffffffffffff168152602001600073ffffffffffffffffffffffffffffffffffffffff168152602001600062ffffff168152509056fea264697066735822122041fd54c5c9c24d0ab82a53174bfba996521191415dea4c6cdebe40f325645be364736f6c63430007060033",
  "linkReferences": {},
  "deployedLinkReferences": {}
}