{
  "_format": "hh-sol-artifact-1",
  "contractName": "UniV3SpotPrice",
  "sourceName": "contracts/TokenPrice.sol",
  "abi": [
    {
      "inputs": [
        {
          "internalType": "address",
          "name": "pool",
          "type": "address"
        },
        {
          "internalType": "uint32",
          "name": "period",
          "type": "uint32"
        },
        {
          "internalType": "uint128",
          "name": "baseAmount",
          "type": "uint128"
        },
        {
          "internalType": "address",
          "name": "baseToken",
          "type": "address"
        },
        {
          "internalType": "address",
          "name": "quoteToken",
          "type": "address"
        }
      ],
      "name": "getSpotPrice",
      "outputs": [
        {
          "internalType": "uint256",
          "name": "quoteAmount",
          "type": "uint256"
        }
      ],
      "stateMutability": "view",
      "type": "function"
    }
  ],
  "bytecode": "0x608060405234801561001057600080fd5b50610c34806100206000396000f3fe608060405234801561001057600080fd5b506004361061002b5760003560e01c80639874a99c14610030575b600080fd5b6100de600480360360a081101561004657600080fd5b81019080803573ffffffffffffffffffffffffffffffffffffffff169060200190929190803563ffffffff16906020019092919080356fffffffffffffffffffffffffffffffff169060200190929190803573ffffffffffffffffffffffffffffffffffffffff169060200190929190803573ffffffffffffffffffffffffffffffffffffffff1690602001909291905050506100f4565b6040518082815260200191505060405180910390f35b600080610101878761011b565b905061010f8186868661012f565b91505095945050505050565b60006101278383610147565b905092915050565b600061013d858585856104e6565b9050949350505050565b6000808263ffffffff1614156101c5576040517f08c379a00000000000000000000000000000000000000000000000000000000081526004018080602001828103825260028152602001807f425000000000000000000000000000000000000000000000000000000000000081525060200191505060405180910390fd5b6000600267ffffffffffffffff811180156101df57600080fd5b5060405190808252806020026020018201604052801561020e5781602001602082028036833780820191505090505b509050828160008151811061021f57fe5b602002602001019063ffffffff16908163ffffffff168152505060008160018151811061024857fe5b602002602001019063ffffffff16908163ffffffff168152505060008473ffffffffffffffffffffffffffffffffffffffff1663883bdbfd836040518263ffffffff1660e01b81526004018080602001828103825283818151815260200191508051906020019060200280838360005b838110156102d35780820151818401526020810190506102b8565b505050509050019250505060006040518083038186803b1580156102f657600080fd5b505afa15801561030a573d6000803e3d6000fd5b505050506040513d6000823e3d601f19601f82011682018060405250604081101561033457600080fd5b810190808051604051939291908464010000000082111561035457600080fd5b8382019150602082018581111561036a57600080fd5b825186602082028301116401000000008211171561038757600080fd5b8083526020830192505050908051906020019060200280838360005b838110156103be5780820151818401526020810190506103a3565b50505050905001604052602001805160405193929190846401000000008211156103e757600080fd5b838201915060208201858111156103fd57600080fd5b825186602082028301116401000000008211171561041a57600080fd5b8083526020830192505050908051906020019060200280838360005b83811015610451578082015181840152602081019050610436565b5050505090500160405250505050905060008160008151811061047057fe5b60200260200101518260018151811061048557fe5b60200260200101510390508463ffffffff168160060b816104a257fe5b05935060008160060b1280156104ce575060008563ffffffff168260060b816104c757fe5b0760060b14155b156104dd578380600190039450505b50505092915050565b6000806104f2866106e9565b90506fffffffffffffffffffffffffffffffff80168173ffffffffffffffffffffffffffffffffffffffff16116106035760008173ffffffffffffffffffffffffffffffffffffffff168273ffffffffffffffffffffffffffffffffffffffff160290508373ffffffffffffffffffffffffffffffffffffffff168573ffffffffffffffffffffffffffffffffffffffff16106105c4576105bf7801000000000000000000000000000000000000000000000000876fffffffffffffffffffffffffffffffff1683610b24565b6105fb565b6105fa81876fffffffffffffffffffffffffffffffff167801000000000000000000000000000000000000000000000000610b24565b5b9250506106e0565b60006106458273ffffffffffffffffffffffffffffffffffffffff168373ffffffffffffffffffffffffffffffffffffffff1668010000000000000000610b24565b90508373ffffffffffffffffffffffffffffffffffffffff168573ffffffffffffffffffffffffffffffffffffffff16106106ad576106a8700100000000000000000000000000000000876fffffffffffffffffffffffffffffffff1683610b24565b6106dc565b6106db81876fffffffffffffffffffffffffffffffff16700100000000000000000000000000000000610b24565b5b9250505b50949350505050565b60008060008360020b12610700578260020b610708565b8260020b6000035b90507ffffffffffffffffffffffffffffffffffffffffffffffffffffffffffff2761860000360020b8111156107a6576040517f08c379a00000000000000000000000000000000000000000000000000000000081526004018080602001828103825260018152602001807f540000000000000000000000000000000000000000000000000000000000000081525060200191505060405180910390fd5b6000806001831614156107ca577001000000000000000000000000000000006107dc565b6ffffcb933bd6fad37aa2d162d1a5940015b70ffffffffffffffffffffffffffffffffff169050600060028316146108165760806ffff97272373d413259a46990580e213a8202901c90505b6000600483161461083b5760806ffff2e50f5f656932ef12357cf3c7fdcc8202901c90505b600060088316146108605760806fffe5caca7e10e4e61c3624eaa0941cd08202901c90505b600060108316146108855760806fffcb9843d60f6159c9db58835c9266448202901c90505b600060208316146108aa5760806fff973b41fa98c081472e6896dfb254c08202901c90505b600060408316146108cf5760806fff2ea16466c96a3843ec78b326b528618202901c90505b600060808316146108f45760806ffe5dee046a99a2a811c461f1969c30538202901c90505b600061010083161461091a5760806ffcbe86c7900a88aedcffc83b479aa3a48202901c90505b60006102008316146109405760806ff987a7253ac413176f2b074cf7815e548202901c90505b60006104008316146109665760806ff3392b0822b70005940c7a398e4b70f38202901c90505b600061080083161461098c5760806fe7159475a2c29b7443b29c7fa6e889d98202901c90505b60006110008316146109b25760806fd097f3bdfd2022b8845ad8f792aa58258202901c90505b60006120008316146109d85760806fa9f746462d870fdf8a65dc1f90e061e58202901c90505b60006140008316146109fe5760806f70d869a156d2a1b890bb3df62baf32f78202901c90505b6000618000831614610a245760806f31be135f97d08fd981231505542fcfa68202901c90505b600062010000831614610a4b5760806f09aa508b5b7a84e1c677de54f3e99bc98202901c90505b600062020000831614610a715760806e5d6af8dedb81196699c329225ee6048202901c90505b600062040000831614610a965760806d2216e584f5fa1ea926041bedfe988202901c90505b600062080000831614610ab95760806b048a170391f7dc42444e8fa28202901c90505b60008460020b1315610af257807fffffffffffffffffffffffffffffffffffffffffffffffffffffffffffffffff81610aee57fe5b0490505b60006401000000008281610b0257fe5b0614610b0f576001610b12565b60005b60ff16602082901c0192505050919050565b600080600080198587098587029250828110838203039150506000811415610b5f5760008411610b5357600080fd5b83820492505050610bf7565b808411610b6b57600080fd5b600084868809905082811182039150808303925060008586600003169050808604955080840493506001818260000304019050808302841793506000600287600302189050808702600203810290508087026002038102905080870260020381029050808702600203810290508087026002038102905080870260020381029050808502955050505050505b939250505056fea264697066735822122097634b41cf6a37beba0f460abe5824fc5d7b7c746e31f09ae91a8d1ea597527164736f6c63430007060033",
  "linkReferences": {},
  "deployedLinkReferences": {}
}